:020000040800F2
:10000000000002205909000855090008554D000854
:1000100055090008550900085509000800000000AE
:10002000000000000000000000000000550900086A
:10003000550900080000000055090008D94C0008C7
:100040005509000855090008550900085509000818
:100050005509000855090008550900085509000808
:10006000550900085509000855090008E14800082D
:10007000ED480008AD310008F948000805490008BE
:10008000E1FA0008C53D00085509000855090008B7
:1000900055090008550900085509000855090008C8
:1000A00055090008550900085509000855090008B8
:1000B000F9EE000805EF000811EF0008F93D00080F
:1000C00055090008053E00085509000869E70008C1
:1000D00075E7000815F9000841F9000875F90008EE
:1000E00055090008550900080000000055090008DE
:1000F0005509000855090008550900085509000868
:1001000055090008550900081DEF000881E700089F
:10011000A9F90008DDF9000879340008550900083C
:10012000613400086D340008A5E70008D9E700082D
:1001300015FB000855090008550900085509000875
:1001400000000000000000000000000000000000AF
:1001500055090008550900085509000811FA00085A
:10016000113E000855090008E94C00080D4D000833
:1001700055090008314D00085509000855090008C7
:10018000550900085509000845FA000879FA0008E1
:100190008DE7000899E7000855090008550900088F
:1001A00055090008550900085509000855090008B7
:1001B00001460008550900085509000855090008BE
:1001C0005509000855090008550900085509000897
:1001D0005509000855090008550900085509000887
:1001E0005509000855090008550900085509000877
:1001F0005509000855090008550900085509000867
:100200005509000855090008550900085509000856
:100210005509000855090008550900085509000846
:10022000550900085509000855090008000000009C
:10023000550900085509000800000000550900088C
:100240005509000855090008550900085509000816
:100250005509000855090008550900085509000806
:1002600055090008550900085509000855090008F6
:100270005509000855090008ADFA00080000000003
:10028000550900085509000855090008000000003C
:08029000000000005509000800
:1002980010B5054C237833B9044B13B10448AFF3B8
:1002A80000800123237010BDE0030024000000003B
:1002B800C039010808B5034B1BB103490348AFF324
:1002C800008008BD00000000E4030024C0390108D4
:1002D80081F0004102E000BF83F0004330B54FEAEF
:1002E80041044FEA430594EA050F08BF90EA020F5C
:1002F8001FBF54EA000C55EA020C7FEA645C7FEAEF
:10030800655C00F0E2804FEA5454D4EB5555B8BF11
:100318006D420CDD2C4480EA020281EA030382EA82
:10032800000083EA010180EA020281EA0303362D14
:1003380088BF30BD11F0004F4FEA01314FF4801CE7
:100348004CEA113102D0404261EB410113F0004FF9
:100358004FEA03334CEA133302D0524263EB4303B0
:1003680094EA050F00F0A780A4F10104D5F1200E4E
:100378000DDB02FA0EFC22FA05F2801841F10001A9
:1003880003FA0EF2801843FA05F359410EE0A5F17D
:1003980020050EF1200E012A03FA0EFC28BF4CF0AE
:1003A800020C43FA05F3C01851EBE37101F0004564
:1003B80007D54FF0000EDCF1000C7EEB00006EEB71
:1003C8000101B1F5801F1BD3B1F5001F0CD34908FB
:1003D8005FEA30004FEA3C0C04F101044FEA445252
:1003E80012F5800F80F09A80BCF1004F08BF5FEAD9
:1003F800500C50F1000041EB045141EA050130BDB9
:100408005FEA4C0C404141EB0101013C28BFB1F5CA
:10041800801FE9D291F0000F04BF01460020B1FA15
:1004280081F308BF2033A3F10B03B3F120020CDAE8
:100438000C3208DD02F1140CC2F10C0201FA0CF0C6
:1004480021FA02F10CE002F11402D8BFC2F1200C2B
:1004580001FA02F120FA0CFCDCBF41EA0C019040E1
:10046800E41AA2BF01EB0451294330BD6FEA04042A
:100478001F3C1CDA0C340EDC04F11404C4F1200215
:1004880020FA04F001FA02F340EA030021FA04F327
:1004980045EA030130BDC4F10C04C4F1200220FA7E
:1004A80002F001FA04F340EA0300294630BD21FABC
:1004B80004F0294630BD94F0000F83F4801306BF82
:1004C80081F480110134013D4EE77FEA645C18BF76
:1004D8007FEA655C29D094EA050F08BF90EA020F0D
:1004E80005D054EA000C04BF1946104630BD91EA05
:1004F800030F1EBF0021002030BD5FEA545C05D108
:100508004000494128BF41F0004130BD14F5800446
:100518003CBF01F5801130BD01F0004545F0FE41BA
:1005280041F470014FF0000030BD7FEA645C1ABFEF
:10053800194610467FEA655C1CBF0B46024650EA26
:10054800013406BF52EA033591EA030F41F4002152
:1005580030BD00BF90F0000F04BF0021704730B5D8
:100568004FF4806404F132044FF000054FF00001AD
:1005780050E700BF90F0000F04BF0021704730B56E
:100588004FF4806404F1320410F0004548BF404243
:100598004FF000013EE700BF42004FEAE2014FEA98
:1005A80031014FEA02701FBF12F07F4393F07F4F73
:1005B80081F06051704732F07F4208BF704793F076
:1005C8007F4F04BF41F40021704730B54FF4607489
:1005D80001F0004521F000411CE700BF50EA01028C
:1005E80008BF704730B54FF000050AE050EA010235
:1005F80008BF704730B511F0004502D5404261EBA5
:1006080041014FF4806404F132045FEA915C3FF4E5
:10061800D8AE4FF003025FEADC0C18BF03325FEA82
:10062800DC0C18BF033202EBDC02C2F1200300FA33
:1006380003FC20FA02F001FA03FE40EA0E0021FA58
:1006480002F11444BDE600BF53B94AB9002908BFF6
:1006580000281CBF4FF0FF314FF0FF3000F074B995
:10066800ADF1080C6DE904CE00F006F8DDF804E001
:10067800DDE9022304B070472DE9F047089D0446E0
:100688008E46002B4DD18A42944669D9B2FA82F23D
:1006980052B101FA02F3C2F1200120FA01F10CFA79
:1006A80002FC41EA030E94404FEA1C48210CBEFBB1
:1006B800F8F61FFA8CF708FB16E341EA034306FB3A
:1006C80007F199420AD91CEB030306F1FF3080F0C9
:1006D8001F81994240F21C81023E63445B1AA4B216
:1006E800B3FBF8F008FB103344EA034400FB07F7B8
:1006F800A7420AD91CEB040400F1FF3380F00A81F9
:10070800A74240F207816444023840EA0640E41BED
:1007180000261DB1D4400023C5E900433146BDE899
:10072800F0878B4209D9002D00F0EF800026C5E93B
:10073800000130463146BDE8F087B3FA83F6002E53
:100748004AD18B4202D3824200F2F980841A61EBCB
:10075800030301209E46002DE0D0C5E9004EDDE7E9
:1007680002B9FFDEB2FA82F2002A40F09280A1EBD1
:100778000C014FEA1C471FFA8CFE0126200CB1FB26
:10078800F7F307FB131140EA01410EFB03F088421F
:1007980008D91CEB010103F1FF3802D2884200F2AC
:1007A800CB804346091AA4B2B1FBF7F007FB10113E
:1007B80044EA01440EFB00FEA64508D91CEB0404DC
:1007C80000F1FF3102D2A64500F2BB800846A4EB37
:1007D8000E0440EA03409CE7C6F12007B34022FA22
:1007E80007FC4CEA030C20FA07F401FA06F31C4351
:1007F800F9404FEA1C4900FA06F3B1FBF9F8200C5E
:100808001FFA8CFE09FB181140EA014108FB0EF0A3
:10081800884202FA06F20BD91CEB010108F1FF3AF3
:1008280080F08880884240F28580A8F102086144FF
:10083800091AA4B2B1FBF9F009FB101144EA01410D
:1008480000FB0EFE8E4508D91CEB010100F1FF34B8
:100858006CD28E456AD90238614440EA0840A0FB50
:100868000294A1EB0E01A142C846A64656D353D026
:100878005DB1B3EB080261EB0E0101FA07F722FA4A
:1008880006F3F1401F43C5E9007100263146BDE873
:10089800F087C2F12003D8400CFA02FC21FA03F3D6
:1008A800914001434FEA1C471FFA8CFEB3FBF7F057
:1008B80007FB10360B0C43EA064300FB0EF69E427C
:1008C80004FA02F408D91CEB030300F1FF382FD215
:1008D8009E422DD9023863449B1B89B2B3FBF7F6BD
:1008E80007FB163341EA034106FB0EF38B4208D996
:1008F8001CEB010106F1FF3816D28B4214D9023ED7
:100908006144C91A46EA004638E72E46284605E7F4
:100918000646E3E61846F8E64B45A9D2B9EB0208C5
:1009280064EB0C0E0138A3E74646EAE7204694E755
:100938004046D1E7D0467BE7023B614432E7304688
:1009480009E76444023842E7704700BFFEE700BF8A
:100958000B480C4A904203D0121A0B4912F012FDB0
:100968000A480B4A904203D0121A002112F018FDCF
:1009780004F046FC12F0E2FC00F056FBFEE700BF74
:1009880000000024E0030024F4390108E0030024F7
:100998004C370024704700BF704700BF704700BF46
:1009A800704700BF704700BF704700BF704700BF67
:1009B800704700BF000000002DE9F04F2DED048BBB
:1009C80083B00192002A00F0E88006460025DFF88F
:1009D800F4B18A46784F794CDFF82882784B4FEA91
:1009E80085097848B0EE009BB3F9003000EE103A64
:1009F800B8EEC00A11F018FFD7ED007AB6EE000A7B
:100A08007048F0EEE77A27EE800A11F071FF33683C
:100A18006C4803EB850393ED000A11F0A1FE6A4BC5
:100A2800DBED0E7A93ED000A336897ED007A4B44BC
:100A3800664827EE277A93ED008AB7EEC77AB7EEB5
:100A4800C88AA7EE098B11F007FE6048B7EEC80BFD
:100A580011F0CCFDB0EE408A5D489FED5E0A11F0C2
:100A680047FF9FED5D0A5A4811F0DEFEB0EE480AD6
:100A7800574811F075FE594BB7EEC87A9FED550AE5
:100A880093ED006A524B5648D3ED0D6A26EE266A5E
:100A9800B7EEC66AA6EE097BB7EEC78B11F028FF42
:100AA8009FED500A4E4811F0BFFEB0EE480A4C4880
:100AB80011F056FE4C4BB7EEC87ADFED4C5A93ED69
:100AC800006A474B94ED020AD3ED0C6A9FED488A01
:100AD80026EE266A237B84ED018AC4ED005AB7EE20
:100AE800C66AA6EE097BB7EEC77BA7EE250A20EEFD
:100AF800088A37EE487AF0EE487AE7EE257AC4EDB0
:100B0800027A23B1012B9FED3B0A07FE008A9FED75
:100B18003A0A0135394811F0EBFE9FED2E0A3748A5
:100B280011F02CFF9FED360A344811F07DFEB0EE2F
:100B3800480A324811F014FE304BB7EEC80A98ED57
:100B4800006A93ED0E5ADAF80030B7EEC55A4B44F6
:100B58009FED157B9FED164BA5EE070BB7EEC00B6F
:100B680020EE066AB7EEC66A26EE046BB7EEC66BD1
:100B780083ED006A98ED007ADAF8043020EE077AFF
:100B88004B44B7EEC77A27EE047BB7EEC77B83EDFD
:100B9800007A019BAB427FF421AF03B0BDEC048B1C
:100BA800BDE8F08FAFF300809A9999999999E9BFB8
:100BB800333333333333F33FB8070024FC030024C3
:100BC800B4070024A4040024B00700243C05002432
:100BD800F0040024CDCC4C3E00C05A45BC0700248C
:100BE8005804002400009643980700245F33D44239
:100BF80061FA183C00000000CDCC4C3D0C040024E8
:100C080000002A44C007002438B54F4C204602F0A3
:100C18000DF823791BB1A37A7F2B00F083804B4C0E
:100C2800204602F003F823791BB1A37A7F2B00F04A
:100C38008280474C204601F0F9FF237913B1A37A4B
:100C48007F2B5DD0434CA37D2046BBB102F062FEF2
:100C5800414D80F001002B78C0B2834214D13F4C43
:100C6800A37D2046002B2ED002F054FE3C4D80F090
:100C780001002B78C0B283422BD138BD364D02F02B
:100C880049FE2B788342EAD0A37D3248002B34D02A
:100C980002F040FE80F00100C0B228700028DED0CB
:100CA800304C3148217881F00101217002F03EFE7C
:100CB80021782A4C2D4881F0010102F037FEA37DEE
:100CC8002046002BD0D1264D02F024FE2B788342FB
:100CD800D3D0A37D214863B102F01CFE80F001004F
:100CE800C1B2234B297019701F48BDE8384002F083
:100CF8001DBE02F00FFE0146F3E702F00BFECCE743
:100D08001C4C1D48217881F00103237002F00EFE6F
:100D180021781A4802F00AFE124B1948197802F095
:100D280005FE8FE7174B1848197881F001011970F3
:100D380002F0FCFD73E7154B1548197881F00101A5
:100D4800197002F0F3FD74E74805002480050024BB
:100D5800700500249005002472080024580500241A
:100D68006E080024710800242808002414080024B0
:100D78006D0800246F080024D80700240008002408
:100D88003C0800246C080024C407002470080024D0
:100D9800EC0700240000000070B54D4C4D4E204675
:100DA8004D4D2DED028B00F023FD204600F02CFD6B
:100DB80020460821B5EE008A00F028FD474B204662
:100DC800012183ED000A00F021FD454B2046092151
:100DD80083ED000A00F01AFD30EE480A414B204628
:100DE800032183ED000A00F011FD9FED3F7A2046B4
:100DF800DFED3E7A04213E4BE0EE077AFDEEE77A1E
:100E080017EE902A1A8000F001FD30EE480A394B9F
:100E18002046052183ED000A00F0F8FC30EE480A70
:100E2800354B2046022183ED000A00F0EFFC334BDE
:100E380020460A2183ED000A00F0E8FC304B2046EA
:100E48000B2183ED000A00F0E1FC2046062186ED27
:100E5800000A00F0DBFC2B4B2046072183ED000A3B
:100E680000F0D4FC96ED005AB7EE006BB0EE084BDC
:100E7800254BB7EEC55A284683ED000A36EE456B7A
:100E88009FED0F7BA6EE047BB7EEC70B85ED020A3C
:100E980011F048FF284685ED070A11F089FDB7EEE5
:100EA800C00A1A489FED087BBDEC028B30EE070B99
:100EB800BDE8704020EE070BB7EEC00B01F066BE30
:100EC8009A9999999999B93F333333333333E33F37
:100ED800A8050024A807002474080024B0070024EB
:100EE800C0070024BC07002400007A4500002A43FC
:100EF800B4070024B8070024980700249C0700249E
:100F0800A0070024A4070024AC07002450080024EC
:100F180038B5364A364B3748374C384D2DED048BAB
:100F28001A60B0EE408A364A9FED369A5A6000221F
:100F3800B0EE490ADFED348A9A6000221A7311F084
:100F48001DFD9FED320A2B4811F06EFCB0EE490AE8
:100F5800284811F0CDFCB0EE480A264811F0DCFB19
:100F680020469FED2B0A11F05FFCB0EE680A204680
:100F780011F004FDB0EE680A204611F0B9FC2046D5
:100F8800244CB0EE480A11F0C7FBB0EE480A2046E0
:100F980011F0C2FB20469FED200A11F045FC2046C7
:100FA8001E4CB0EE490A11F0A3FC9FED1D0A204625
:100FB80011F03AFCB0EE680A204611F0DFFC20463A
:100FC8009FED180A11F094FCB0EE480A204611F083
:100FD800A3FB2846B0EE680A11F03EFB2846BDEC9C
:100FE800048BBDE8384011F0A1BA00BF5F33D4428A
:100FF800FC0300240C040024F00400243C05002415
:1010080061FA183CCDCCCC3DCDCC4C3E00002A44F6
:1010180000C05A455804002400009643A404002444
:1010280000007A449A99993E00B5744887B0012522
:1010380000F034FA0E239FED728A8DF808500426CA
:101048008DF80930B0EE480A6E4800240299F7EE90
:10105800008A01F0D1FD8DF80C508DF80D60B0EECE
:10106800480A0399684801F0C7FD02220B23B0EE35
:10107800480A8DF810208DF811306448049901F061
:10108800BBFD634B63481A78597842EA01212A4626
:1010980001F046FD604B61481A78597842EA01210F
:1010A8002A4601F03DFD5E4B00941A785978234694
:1010B8005C4842EA01212A4602F046FB5A4A00945B
:1010C800234611785278594841EA02212A4602F00B
:1010D8003BFB574A0094234611785278554841EA19
:1010E80002212A4602F030FB534A00942346117825
:1010F8005278524841EA02212A4602F025FB504A1A
:1011080000942346117852784E4841EA02212A4633
:1011180002F01AFB4C4A00942346117852784B4847
:1011280041EA02212A4602F00FFB09238DF81450E8
:1011380022468DF8153005999FED450A454801F07E
:1011480001FD9FED450A434801F020FD2946394835
:1011580002F0ECFB29463D4802F0E8FB3F4B2748EC
:101168001C703F4B1D7000F03FFBF0EE407A3D4D88
:1011780000224FF07C532846B0EE480A88EEA77A42
:10118800AA61C5ED047A6B60EB6085ED028A85ED96
:10119800057A11F0C7FD40F20113F0EE407A2846B7
:1011A800B0EE680A2B85C5ED077A2C70C5ED028A6A
:1011B80011F0B8FD2C4885ED070A01F087FF0F48AC
:1011C80000F012FBFFF7A4FE31460C4800F0B8FA15
:1011D80003210A4800F0DEFA2449084800F0ACFA76
:1011E800064800F005FB054800F00EFBFFF7D4FDAC
:1011F800FFF70AFD174801F0DBFCF1E7A80500241A
:101208000000C84280050024480500247005002419
:1012180020340108900500241034010858050024E2
:1012280004340108EC07002414340108C40700241E
:1012380018340108D80700241C34010800080024C9
:1012480008340108140800240C3401082808002474
:1012580000007A44500800240000FE426F08002471
:101268007108002474080024BC050024C109000882
:10127800F8B542480024424D4FF60B76414F2A46B6
:10128800414904628462C0E90344C0E96C64C0E96E
:101298006E44C0E97264C0E9744411F049FD2A46FD
:1012A8003A493B4811F044FD2A463946394811F07D
:1012B8003FFD2A463946384811F03AFD2A46394654
:1012C800364811F035FD2A4639463548354F11F074
:1012D8002FFD2A463449354811F02AFD2A46394659
:1012E800334811F025FD2A463946324811F020FDD1
:1012F8002A463946304811F01BFD304B304A3149F7
:101308003148C3E90064C3E90244304BC2E90064D0
:10131800C2E90244C3E90064C3E902442C4A2D4BE4
:10132800C2E90064C2E90244C3E90064C3E90244B3
:10133800294A2A4BC2E90064C3E90064C3E90244AC
:10134800C2E902442A4611F0F3FC25482A462549F9
:10135800C0E90064C0E9024411F0EAFC22482A46C8
:1013680020490660C460C0E9014411F0E1FC2A4646
:101378001E491F48BDE8F84011F0DABCA805002452
:1013880000000024B1090008A9090008B9090008EB
:10139800FC030024580400240C040024F004002456
:1013A800A40400249D090008B50900083C05002490
:1013B800800500244805002470050024C407002483
:1013C800EC070024A50900085008002400080024A0
:1013D800D807002428080024140800243C08002406
:1013E80090050024A109000858050024AD0900084B
:1013F8007408002400294ED0274BF0B5D0E900240A
:10140800481E03F10C0E951C03F1100C4E00AC4263
:1014180018BF052802EB41058CBF0120002062455A
:1014280038BFAE452CBF01270027384227D02644B5
:10143800644538BFB64522D39D890026D8894FEA2E
:10144800510E65F30F06A44602EB8E0E65F31F4698
:10145800002560F30F0560F31F45104640F8046B44
:1014680070454CF8045BF9D121F00100C90705D596
:10147800998922F81010DB8924F81030F0BD023A5F
:10148800023C023D998922F8021FAA42D98924F810
:10149800021FF7D1F0BD7047A00800242DE9F043E2
:1014A80040F20113964A012706462DED028BDDB066
:1014B800C0F8EC21ADF81C30002306978DF81E30DB
:1014C80003F054FE044603F0B5FC06A905460028BF
:1014D80040F00081002C00F0FD8030468DF81E7031
:1014E80003F0CAFD072C0DF198080DD0854906F1C7
:1014F8000C00854B854ACDE92613012341462892E5
:10150800ADF8A43002F0F4FE032201234FF00009E5
:101518001CA904A806F11005CDF870904446CDF832
:1015280010905CAFCDE9202300220123CDE92223CE
:10153800774B01221D9303F1007303F540731E934B
:101548004FF44173ADF87C300023CDE9242303F038
:101558004FFA01230CA905A80C930E931023CDF87C
:1015680014908DF840306B4BCDF83C900D9302F001
:1015780051FC059906F1200000F062F94FF07E5306
:101588003020049A0A9308A90B930323CDE9080392
:10159800284601F047F9284601F08EF92846B0EEB2
:1015A800408A01F077F9D0ED007A0DF1580CDFF898
:1015B80084E1F8EE677A6546BEE80F0088EE277A80
:1015C800ACE80F009EE803008CE8030086ED7A7A09
:1015D80035F8023B204612340222ADF80C3003994C
:1015E80001F052FBA742F3D106F1140704230C22A1
:1015F8004146384606F1300500249FED478A01F040
:1016080057FB09E001F078FD96ED7A0A0146284675
:10161800013401F0FFF92035072CE1B23846F1D941
:10162800E1B2013401F068FD00230146F0EE480AFA
:1016380028461A4696ED7A0A01F0BAF90C2CEAD136
:101648003046364B40F82C3F02F07AF9344B0122F1
:1016580006F5D870196801F063FA324B012206F5D5
:10166800E470196801F05CFA2F4B06F5F070C6F8C3
:10167800E03102F065F92D4B06F5F270C6F8E43159
:1016880002F05EF90123D6F8EC0111A9CDE9133374
:10169800022310301293002315934BF680331193D5
:1016A80001F07EFF384601F011FDD6F8EC41237DAC
:1016B80004F11005FBB928461D4D2368D4E9011231
:1016C800009501F0EBFF012323755DB0BDEC028BA3
:1016D800BDE8F083304603F0CFFC25B106F10800E1
:1016E80000F0B0F9FEE6002C7FF4FCAE06F108002D
:1016F80000F0A8F9F6E6284602F006F8DBE700BF96
:10170800A00800240508050905070506050A0606B8
:1017180004020404010A010B6F12033B02070100D3
:101728002034010810340108020E0100020D0100E6
:10173800FD130008B8330108103001F005B900BFE7
:10174800F8B500F11007054600F1300400F5D87629
:1017580038462DED028B01F0A1F8384601F0ACF8BF
:101768003846B0EE408A01F095F8D0ED007AF8EEF0
:10177800677A88EE270A85ED7A0A01E095ED7A0AFC
:101788002046203401F0A0F9B442F7D1BDEC028B19
:10179800F8BD00BFF8B500F11007054600F13004A8
:1017A80000F5D87638462DED028B01F089F83846D9
:1017B80001F082F83846B0EE408A01F06BF8D0EDBF
:1017C800007AF8EE677A88EE270A85ED7A0A01E052
:1017D80095ED7A0A2046203401F076F9B442F7D123
:1017E800BDEC028BF8BD00BF103001F065B800BF3A
:1017F80038B500F1300400F5D8752046203401F0E2
:101808003FF9AC42F9D138BD704700BF00EB411138
:1018180091ED0F0A704700BF07490022074B01F1FD
:10182800600010B4302459601A611C601A755DF8A4
:10183800044BC3E90202704700000030A0080024EE
:10184800F0B58C2387B00160002203710124FA26C9
:10185800194605AB8DF814200296402200932346C2
:101868000194054602F06CFB002840F09B809DF82F
:1018780014300DF117074022284603F07F03009724
:10188800CDE901468DF814308DF8173023462979B3
:1018980002F07CFB002840F08580042003F0C8FAA1
:1018A80005AB4022284600932346CDE90146297915
:1018B80002F046FB002875D19DF8143040220097AD
:1018C800284603F0BF03CDE901468DF814308DF8A2
:1018D80017302346297902F059FB002862D10420E9
:1018E80003F0A6FA0DF11503432228460093234678
:1018F800CDE90146297902F023FB002852D10DF1E8
:1019080016034822284600932346CDE90146297943
:1019180002F016FB002845D19DF8153043220097A8
:10192800284643F001038DF815308DF817309DF8DF
:10193800163043F00103CDE901468DF816302346F1
:10194800297902F023FB68BB9DF8163048220097DE
:1019580028468DF817302346CDE90146297902F04B
:1019680015FBF8B905AB4022284600932346CDE97C
:101978000146297902F0E4FAA0B99DF8142023461B
:101988000194284602F0CF04029600974022297954
:101998008DF814408DF8174002F0F8FA003818BF97
:1019A800012000E0012007B0F0BD00BFF0B5102312
:1019B80087B0234C012200250126002702A92046D2
:1019C8000195CDE902234FF48052CDE904670AF06E
:1019D8002BFD642003F070FE02A94FF480522046CC
:1019E800CDE9046702261027CDE902670AF01CFD3D
:1019F8000322102302A92046CDE902230023042252
:101A0800CDE904234FF480520AF00EFD40F2322350
:101A1800042202A9019310232046CDE90223019A4A
:101A2800012305924FF4805204930AF0FDFC40F61E
:101A3800060120460AF018FD284607B0F0BD00BF91
:101A4800C00800241C4B00221C494FF0400C30B544
:101A5800054689B00220596007219A601A6201245C
:101A6800DA620A224FF4006EDC6006922022CDE989
:101A7800000104200821CDE9020103201021CDE94D
:101A8800040108206946C3E904024FF4C072181D16
:101A9800C3E906C24FF48052C3E909E20AF09AFC8E
:101AA80038B92846FFF782FF003818BF012009B06F
:101AB80030BD204609B030BDBC080024404100526A
:101AC800614A0021D0B513688EB00A91002B40F00E
:101AD800B9805E4B01214FF683700C2411600221FE
:101AE800D3F8D4200026032742F48052C3F8D42028
:101AF800D3F8D42002F480520092009AD3F8E02060
:101B080042F01002C3F8E020D3F8E02002F01002FF
:101B18000192019AD3F8E02042F04002C3F8E02095
:101B2800D3F8E02002F040020292029AD3F8E020B3
:101B380042F00802C3F8E020D3F8E02002F00802DF
:101B48000392039AD3F8E02042F48072C3F8E020AD
:101B5800D3F8E02002F480720492049AD3F8E020CB
:101B680042F08002C3F8E020D3F8E02002F08002BF
:101B78000592059AD3F8E02042F02002C3F8E0204D
:101B8800D3F8E02002F020020692069AD3F8E0206B
:101B980042F00402C3F8E020D3F8E0300C9403F0DC
:101BA800040307930323079A0B93CDE9080108A9B7
:101BB800274805F0EDFE48F23712022308A9254808
:101BC8000C94CDE90823CDE90A6705F0E1FE4CF253
:101BD8000372022308A920480C94CDE90823CDE913
:101BE8000A6705F0D5FE40F2FF62022308A91B48E8
:101BF8000C94CDE90823CDE90A6705F0C9FE4FF634
:101C08000C72022308A916480C94CDE90823CDE9E3
:101C18000A6705F0BDFE4FF63F02022308A91148E6
:101C28000C94CDE90823CDE90A6705F0B1FE20221E
:101C3800022308A90A480C94CDE90A67CDE90823CC
:101C480005F0A6FE0EB0D0BDB80800240044025826
:101C58000010025800180258000C025800200258C0
:101C6800001C0258001402582DE9F04FDFF81084C8
:101C780006460D46144608F118002DED028B89B072
:101C880000AF02F0ADFFD8F8183073B3D8F81C30A5
:101C9800D8F80490002B43690BBF4FF0080A4FF0A7
:101CA800100A4FF0020B4FF0040BB9F1000F2AD0C5
:101CB800A200EA46012B02F1070222F00702ADEB6F
:101CC800020D6846ADEB020D694600F03F81022B1C
:101CD80000F0D680002B6FD02246C847D54624375F
:101CE800BD46BDEC028BBDE8F08FD8F81C30002B48
:101CF800F5D0D8F804904FF0080A4FF0020B43696A
:101D0800B9F1000FD4D1FB61D8F80030BB61002BCA
:101D1800E5D0D54802F0D6FF6B46BBF1020F7861DB
:101D280008EE103AFB6900F083816A465146A2EB3F
:101D3800C40295466200EA46B2FBFBF2AAEBC40075
:101D480085460AEB8200EE46F861ADEB010DF869B5
:101D58000EEB820CC7F810C0EC46ADEB010D00EBA2
:101D68008201CCF80400CCF8081001EB8201386934
:101D7800E946CCF80C1000EB8201CCF800A001EB8E
:101D88008202C9E900E0C9E90212012B00F064836C
:101D9800022B00F06C82002B00F08081620849461B
:101DA8006046BB69984718EE103A24379D46BD46F1
:101DB800BDEC028BBDE8F08F002C8DD01A46D8ED13
:101DC8000C6A9FEDB27A8446331D36F922E00CF195
:101DD800080C07EE90EA33F922E00232F8EEE77ACF
:101DE800944267EE877A67EEA67A4CED027A07EEA0
:101DF80090EAF8EEE77A67EE877A67EEA67A4CED16
:101E0800017AE2D8F9612246C847984ED8ED0D6AA2
:101E18000020F9692B1D9FED9E7A9FED9E6ADFEDEC
:101E28009E5A22E0F4EEC67AF1EE10FAC0F2C884A7
:101E380047F6FE72D1ED017A45F8202066EEA77AC2
:101E4800F4EEC77AF1EE10FA40F2F080F4EEC67ABA
:101E5800F1EE10FAC0F2D58447F6FE7243F820205E
:101E68000230083184427FF639AFD1ED007A66EE50
:101E7800A77AF4EEC77AF1EE10FAD3D83246D9E74A
:101E8800002C3FF429AFD8ED0C6A84469FED787A90
:101E98000022331D8E4656F822100CF1080C07EE6E
:101EA800901A53F822100232F8EEE77A944267EE5D
:101EB800877A67EEA67A4CED027A07EE901AF8EE6A
:101EC800E77A67EE877A67EEA67A4CED017AE2D870
:101ED80071462246C7F81CE0C847664ED8ED0D6A21
:101EE8000020F9692B1D9FED6A7A9FED6A6ADFF879
:101EF80094C120E0F4EEC67AF1EE10FAC0F27984CB
:101F08003246D1ED017A45F8202066EEA77AF4EE44
:101F1800C77AF1EE10FA40F28780F4EEC67AF1EE55
:101F280010FAC0F25E84324643F8202002300831AD
:101F380084427FF6D3AED1ED007A66EEA77AF4EE4E
:101F4800C77AF1EE10FAD5D86246DAE7002C3FF4EA
:101F5800C3AED8ED0C6A86469FED477A4FF0000C69
:101F6800331D56F82C200EF1080E82F40002A2F55B
:101F7800000207EE902A53F82C200CF1020CF8EE20
:101F8800E77A82F400026445A2F5000267EE877AD8
:101F980067EEA67A4EED027A07EE902AF8EEE77A17
:101FA80067EE877A67EEA67A4EED017AD9D8F9619D
:101FB8002246C847314ED8ED0D6A0020F9692B1D1D
:101FC8009FED337A9FED336ADFF8BCC01FE0F4EE73
:101FD800C67AF1EE10FAC0F2FC833246D1ED017AEE
:101FE80045F8202066EEA77AF4EEC77AF1EE10FAEB
:101FF80018D9F4EEC67AF1EE10FAC0F2DA83324656
:1020080043F820200230083184427FF667AED1EDD4
:10201800007A66EEA77AF4EEC77AF1EE10FAD6D80F
:102028006246DBE76246EBE762467DE7324615E744
:10203800A100D6466208073121F00701ADEB010D7A
:10204800EA46ADEB010D6946ADEB0E0D0AEB8200D9
:10205800EC46ADEB0E0D01EB8202F861E946CCE9E6
:1020680000A0C9E9001290E6100900240280FFFFD1
:10207800000000300082FF7F0000003482FF7F00F4
:10208800F4080024007E00807E0080FF00000038F5
:1020980004FF7FBF04FF7F3F00FEFF46002C00F0D7
:1020A800C982BBF1020FD8F8242000F0FA827969BE
:1020B800C7F8049002EB810E5FED0C5A8A00DCF839
:1020C80008100EF104007A611A46DCF80C303B6106
:1020D800331DD7F810903D61FD69C7E902CB8C46E6
:1020E800834636F92210D8ED0C7A06EE101A33F929
:1020F800221006EE901A3EF92210B8EEC66A07EED4
:10210800101AF8EEE66A3BF92210B8EEC77A26EE06
:10211800256A66EEA56A27EE257A26EE276A66EE18
:10212800A76A27EE277A07EE901A51080232F8EECE
:10213800E77A0AEB8100944280ED006A05EB8100A2
:1021480067EEA57AC0ED006A0CEB810009EB81010E
:1021580080ED007A98ED0C7A67EE877AC1ED007A07
:10216800BFD8D7F804903D69D7E902CB604662082A
:10217800BB6949469847D8F82C307A69D8ED0D6A7A
:102188001A441FED3D7A1FED3D6A2B1D904602F162
:10219800040A5FED3F5A0022A84ED9E900EC51E04D
:1021A800F4EEC67AF1EE10FAC0F2C78247F6FE7076
:1021B80045F822000CEB0100D0ED007A66EEA77A14
:1021C800F4EEC77AF1EE10FA4BD9F4EEC67AF1EED6
:1021D80010FAC0F2BA8247F6FE70BBF1020F43F85C
:1021E80022002BD0D9F808000844D0ED007A66EE1A
:1021F800A77AF4EEC77AF1EE10FA36D9F4EEC67A79
:10220800F1EE10FAC0F2CD8247F6FE7048F82200CF
:10221800D9F80C000144D1ED007A66EEA77AF4EE05
:10222800C77AF1EE10FA1ED9F4EEC67AF1EE10FA7A
:10223800C0F2AF8247F6FE714AF822100232944289
:102248007FF6B1AD51080EEB81008900D0ED007A20
:1022580066EEA77AF4EEC77AF1EE10FAA0D8304607
:10226800A6E73046B9E73146E6E73046CEE7002C28
:1022780000F0E081BBF1020FD8F8243000F0E181D2
:102288007A69DCF8081003EB820EC7F80490930013
:10229800DFED6B5A0EF1040000227B61DCF80C3094
:1022A8003B61331DD7F810903D61FD69C7E902CB4A
:1022B8008C46834656F82210D8ED0C7A07EE101A91
:1022C80053F82210B8EEC76A07EE101A5EF822100B
:1022D800F8EEC76A07EE101A26EE256A5BF8221098
:1022E800B8EEC77A66EEA56A26EE276A27EE257A43
:1022F80066EEA76A27EE277A07EE901A510802328F
:10230800F8EEE77A0AEB8100944280ED006A05EB6B
:10231800810067EEA57AC0ED006A0CEB810009EB3D
:10232800810180ED007A98ED0C7A67EE877AC1ED2D
:10233800007ABFD8D7F804903D69D7E902CB604648
:102348006208BB6949469847D8F82C307A69D8EDB5
:102358000D6A1A449FED3E7A9FED3E6A131D924620
:10236800DFF8E4C00022FB612B1D364ED9E9008E50
:102378004EE0F4EEC67AF1EE10FAC0F2FC81304677
:1023880045F822000EEB0100D0ED007A66EEA77A40
:10239800F4EEC77AF1EE10FA49D9F4EEC67AF1EE06
:1023A80010FAC0F2EF813046BBF1020F43F8220069
:1023B8002AD0D9F808000844D0ED007A66EEA77A4A
:1023C800F4EEC77AF1EE10FA35D9F4EEC67AF1EEEA
:1023D80010FAC0F2C98130464AF82200D9F80C0038
:1023E8000144D1ED007A66EEA77AF4EEC77AF1EEF1
:1023F80010FA1ED9F4EEC67AF1EE10FAC0F2AD81E9
:102408003146F86940F82210023294427FF6CBAC8C
:10241800510808EB81008900D0ED007A66EEA77AB2
:10242800F4EEC77AF1EE10FAA3D86046A8E7604642
:10243800BAE76146E5E76046CEE700BF0280FFFFE6
:10244800000000300082FF7F007E00800000003422
:1024580004FF7FBF04FF7F3F002C00F0EB807A6908
:102468000021D8F82430C7F8109003EB820ED7F873
:102478001C909300FD610EF104021FED0C6A7B6154
:10248800331D154656F821204808D8ED0C6ABBF1D3
:10249800020F82F40002A2F5000207EE902A53F818
:1024A800212082F40002B8EEE77AA2F5000227EEB6
:1024B800067A07EE902A0AEB8002F8EEE77A27EE12
:1024C800267A67EE867A82ED007A09EB80024FEA77
:1024D800800067EEA67AC2ED007A27D05EF8212048
:1024E80082F40002A2F5000207EE902A55F8212096
:1024F80082F40002B8EEE77AA2F5000227EE067A27
:1025080007EE902ADCF80820F8EEE77A024427EE76
:10251800267A67EE867A82ED007A98ED0C7ADCF8F6
:102528000C2067EE877A0244C2ED007A02318C42B1
:10253800A8D8D7F8109060466208BB694946FD697B
:102548009847D8F82C307A69D8ED0D6A1A441FEDEF
:10255800407A1FED406A131D9246DFF8C4C200227C
:10256800FB612B1DAB4ED9E9008E4EE0F4EEC67A26
:10257800F1EE10FAC0F2C580304645F822000EEBA5
:102588000100D0ED007A66EEA77AF4EEC77AF1EE94
:1025980010FA49D9F4EEC67AF1EE10FAC0F2BF800B
:1025A8003046BBF1020F43F822002AD0D9F80800C0
:1025B8000844D0ED007A66EEA77AF4EEC77AF1EE19
:1025C80010FA35D9F4EEC67AF1EE10FAC0F2AE8000
:1025D80030464AF82200D9F80C000144D1ED007ABF
:1025E80066EEA77AF4EEC77AF1EE10FA1ED9F4EE89
:1025F800C67AF1EE10FAC0F28B803146F86940F8DD
:102608002210023294427FF6CEAB510808EB8100CB
:102618008900D0ED007A66EEA77AF4EEC77AF1EE7B
:1026280010FAA3D86046A8E76046BAE76146E5E72E
:102638006046CEE7224649466046BB699847FFF7A1
:10264800B2BBC7F810B0002298ED0C6A331DDFED5D
:10265800726AD7F81CB0786956F8221007EE901AFB
:1026680053F82210B8EEE77A07EE901A51080232B2
:10267800F8EEE77A27EE267A0AEB810E94420BEB06
:10268800810167EEA67A27EE067A67EE867A8EEDE6
:10269800007AC1ED007ADFD88300D7F810B07B61EB
:1026A8004DE61A46C7F810B098ED0C6A331DDFEDF9
:1026B8005B6AD7F81CB0786936F9221007EE101A51
:1026C80033F9221007EE901AB8EEC77A5108023291
:1026D800F8EEE77A27EE267A0AEB810E94420BEBA6
:1026E800810167EEA67A27EE067A67EE867A8EED86
:1026F800007AC1ED007ADFD88300D7F810B07B618B
:1027080034E5F0EE675AFEEEE45A15EE900A34E727
:10271800F0EE675AFEEEE45A15EE901A6EE7F0EE08
:10272800675AFEEEE45A15EE900A3AE7F0EE675A59
:10273800FEEEE45A15EE900A4BE767EEA57AFDEE39
:10274800E77A17EE900A00B232E567EEA57AFDEE59
:10275800E77A17EE900A00B23FE5F0EE675AFEEE10
:10276800E05A15EE901A4CE6F0EE675AFEEEE05A83
:1027780015EE900A30E6F0EE675AFEEEE05A15EED6
:10278800900AFDE5F0EE675AFEEEE05A15EE900A63
:102798000AE667EEA57AFDEEE77A17EE901A09B217
:1027A8004AE567EEA57AFDEEE77A17EE900A00B2E1
:1027B8002CE5F0EE675AFEEEE45A15EE902A1FE477
:1027C80067EEA57AFDEEE77A17EE902A12B2FFF7C8
:1027D80031BBF0EE675AFEEEE45A15EE902AFFF789
:1027E800FDBBF0EE675AFEEEE05A15EE902AFFF7B1
:1027F8009BBBF0EE675AFEEEE05A15EE902AFFF703
:1028080080BB67EEA57AFDEEE77A17EE902A12B242
:10281800FFF724BB82FF7F00000000300000003873
:102828007E0080FF30B5184C154685B0046004F171
:10283800080EEC460FC98EE80F00D4ED047AF5EEC9
:10284800C07A8CE80F00F1EE10FA1ADDB7EE006AD4
:1028580094ED057A27EE277AC6EE276A84ED0D7A7D
:10286800C4ED0C6A6DB1204640F8185F02F0B8F963
:10287800064903690020064A2162A262E36005B0A6
:1028880030BD012005B030BDF4080024C020003060
:10289800C000003000680830704700BFB1F5807F85
:1028A80003680A4628BF4FF48072B1F5807F9A60AA
:1028B80094BF0020012070470068183002F0F0B97A
:1028C80070B504688AB0A369E160CBB104F118055A
:1028D800284602F085F98446EE46E668BCE80F0013
:1028E800AEE80F00BCE80F00AEE80F009CE803005C
:1028F8008EE8030069462846049602F079F8F8B98C
:10290800E069D8B104F11C05284602F069F984464B
:10291800EE46E468BCE80F00AEE80F00BCE80F0024
:10292800AEE80F009CE803008EE8030069462846DD
:10293800049402F05DF8003818BF01200AB070BD99
:1029480001200AB070BD00BF30B5046883B00D46E1
:10295800E3694BB1A3680020E26A616A9B000090BA
:1029680004F11C0002F03EF9A3680748A26A9B0024
:10297800216A009004F1180002F034F90020C4E93B
:10298800005003B030BD00BF711C000810B4074BE5
:102998004FF07E5130240022032019619C60D860DA
:1029A8005DF8044B5961C3E906227047F408002416
:1029B800F6EE007A9FED166A20EE207A0160F7EEB7
:1029C800006A80ED036A80ED020A27EE277AC6EED8
:1029D800877AF4EEE67AF1EE10FA11DDF0EE667A17
:1029E8004FF07E514FF0000C02760022C0ED017AC4
:1029F800C0F814C0016143768276C0ED070A7047BB
:102A0800F4EEC67AF1EE10FAEAD5F0EE467AE7E788
:102A180000000000DFED187AB6EE007AF7EE006AE3
:102A28009FED166A60EE277A016080ED036A80EDFB
:102A3800020A67EE877A86EEA77AB4EEE67AF1EEB6
:102A480010FA10DDB0EE667A4FF0804C4FF07C51F2
:102A58004FF48072012380ED017AC0F810C0416103
:102A6800028383767047B4EEC67AF1EE10FAEBD59E
:102A7800B0EE467AE8E700BF6F12033B00000000A3
:102A88000268037E128807EE902AFBEEC87A1BB113
:102A9800B7EE007A77EE677AD0ED056A90ED047AA2
:102AA80077EEE67A437E67EE877A0BB1F1EE677AC6
:102AB80090ED030A90ED017A77EEC07AA7EE270A27
:102AC80080ED030A704700BF837E80ED020AABB930
:102AD800D0ED077A27EE800AF6EE007AB7EE007A94
:102AE80020EE270AC7EE007AF4EEC77AF1EE10FA64
:102AF80007DDF0EE477AC0ED017A7047DFED067A20
:102B0800E8E7F5EEC07AF1EE10FAF4D5DFED037AD6
:102B1800C0ED017A704700BF6F12033B0000000050
:102B280070B584B0002504461646ADF80C102B4647
:102B38002A460399009500F007FEA582A67504B001
:102B480070BD00BF30B52DED028B83B00446012364
:102B58001546ADF804101730BDF80410B0EE408AE1
:102B68000180637600F0ECFEB5FA85F300220021BF
:102B78005B092575A16084ED048AA5756375C4E9B0
:102B8800002203B0BDEC028B30BD00BF20EE007AFE
:102B9800DFED067A27EE000A60EE277A80ED020A5A
:102BA800FCEEE77AC0ED017A704700BF00FF7F476F
:102BB80090ED046AB7EE007ADFED0E5A0346D0EDC9
:102BC800036AC5EE867A77EEA67AF4EEC77AF1EE56
:102BD80010FAC8BF77EEC77A90ED027AB4EEE77ABA
:102BE800C0ED037A1730F1EE10FACCBF597D997D0C
:102BF80000F090BF0000F04270B5044682B0C1F307
:102C08000726CDB2ADF8041002F010F94FF4807227
:102C18004FF001232060A01DA571A280E671A3607A
:102C280002B0BDE8704000F08BBE00BF38B5044666
:102C380002F0FCF8002223682271834210D001229E
:102C4800A57AE37A954020602271A01D6DB243B940
:102C580000F052FF40B22843C0B27F28A0720AD0C9
:102C680038BD00F049FFB0FA80F040092843C0B2EF
:102C78007F28A072F4D102F0D9F807EE900AF8EE96
:102C8800677AC4ED037A38BD00B583B04FF0000E03
:102C98004FF0030C4274ADF80410BDF8043080F80E
:102CA80010E0A0F802C0038003B05DF804FB00BF89
:102CB8002DE9F04FDFF81C8300258DB0C04C037060
:102CC80008F140034260074601920E462022294639
:102CD8004046C4F86831C4F86481CDE90255CDE9AD
:102CE8000455CDE90655CDE90855CDE90A5510F04A
:102CF80057FB2022294604F5A170C4F83151C4F8C5
:102D08003551C4F83951C4F83D5110F049FB019BC5
:102D180084F8485284F830317A68002A6AD02B4601
:102D280004F59871454606F1100A9E46F01856F8C3
:102D380003B0E2180EF1010ED0F80CC0D0F80490E0
:102D4800D0F8088044F803B0C2F80CC04FF0000C6B
:102D5800C2F80490C2F80880008A25F802CB1082D5
:102D68001AF8032001F8012F002A70D07A684FF072
:102D780001001233724584F84802D7D84FF48022F4
:102D880090489DF8043008214FF000084FF00009E2
:102D9800C4F884310023C4E95B020122C4F8743109
:102DA80084F88031C4E95E2194F84812C4E9648942
:102DB800A9B3C4F89821002284F8813184F88831B5
:102DC8003B78C4E96722002B38D00122002001217A
:102DD800013B84F8A421C4E96C01082B30D8DFE852
:102DE80013F0BD00C200C700CC00D100D600DB0044
:102DF800E100E8009DF804300121C4F87421C4F80A
:102E080084314FF4802384F880216E4AC4E95B231F
:102E180008230022C4E95E130023C4E964230123C4
:102E2800002284F88131002384F888310323C4F810
:102E380098313B78C4E96722002BC6D184F8A431C5
:102E4800614803F071F8034638B1FFBEFEE77A68BF
:102E5800123372453FF66AAF90E702A95A480293C7
:102E680003F0C0F98246002876D1042240F2FF71AF
:102E78000A90CDE9081294F83021002A00F0F38076
:102E88004FF006080AEBCA034FEACA0904EB4303EA
:102E98005B7C072B07D8DFE803F0595C5653504D8D
:102EA8004A04072307930FFA8AF6D14406EBC606AD
:102EB80004EB490904EB46077500384600F040FD6D
:102EC80099F81030042B00F3AA80022B00F3BD8080
:102ED80000F0B98004EB0A03002283F8202114F8DB
:102EE8001630002B78D0022B00F08A80012B40F09E
:102EF800B2807B78012B00F0B080002B334B18BFD9
:102F0800002305A93048CDE9053802F039FC00282E
:102F180040F0AC800AF1010A94F830315FFA8AFA7D
:102F2800534540F2A0802A4B53F82A80AAE706238B
:102F38000793B8E705230793B5E704230793B2E798
:102F480003230793AFE702230793ACE70023079314
:102F5800A9E701230793A6E7FFBEFEE70322402364
:102F6800C4E96A236CE707226023C4E96A2367E798
:102F78000F228023C4E96A2362E71F22A023C4E941
:102F88006A235DE73F22C023C4E96A2358E77F220A
:102F9800E023C4E96A2353E7FF224FF48073C4E9AE
:102FA8006A234DE740F2FF124FF49073C4E96A2395
:102FB80046E740F2FF324FF4A073C4E96A233FE7C3
:102FC80030090024002002409C0A00240002B02599
:102FD80024340108C04000307B78062B37D0072BFB
:102FE8003DD0022B4AD0032B4AD0002B4CD0012BCA
:102FF80048D0042B4AD0052B254B18BF002380E767
:103008007B78042B25D0052B2BD08BB3012B31D00B
:10301800022B31D0032B1F4B18BF002371E703236A
:10302800043504EB0A0B4FF0000925448BF82031D6
:10303800284609F1010900F083FC9BF8203104358A
:103048004B45F5DC4BE70123EAE70223E8E7124B9F
:1030580057E7124B55E7002353E7114B51E7114B44
:103068004FE7114B4DE70DB0BDE8F08FFFBEFEE70F
:103078000E4B46E70E4B44E70E4B42E70E4B40E73C
:103088000E4B3EE70E4B3CE70E4B3AE70E4B38E74C
:103098000000B84F002090360800900C1000C010B7
:1030A8002000F0148000501D000180210004002A37
:1030B8000008302E001060320040C03A0080F03E18
:1030C80000005247000021430000844B38B5094CEA
:1030D80040F2FF724FF0011104F5B675284603F06F
:1030E8002FF894F83021D4F864112846BDE8384008
:1030F80002F09ABD30090024034B0F29D3F864016C
:1031080098BF00EB4100704730090024214B02684A
:103118009A4200D07047204A00232048D2F8D8109D
:1031280030B51F4C41F0200183B0C4F8D00109200C
:1031380004F5E875C4E975034FF48060C2F8D81047
:10314800D2F8D8204FF40061C4E9773094F84802E7
:1031580002F02002C4F8E4114FF4005198420192A1
:103168002846C4F8E811C4E97C33019B14BF002346
:103178004FF48073C4F8EC3103F032FC08B1FFBEA1
:10318800FEE704F5B673C4F8B851C4F8083203B0C2
:1031980030BD00BF002002400044025840000240F9
:1031A80030090024014804F0A1B800BF000B002436
:1031B80002682DE9F84F4B4B9A4201D0BDE8F88FD1
:1031C800494D95F84832002BF8D095F83031002B4E
:1031D80077D0002405F10C0905F5A17605F5987757
:1031E800A04613E003F0010117F811BCA9F108008B
:1031F80000F090FCBBF1010F25D895F8303101346F
:1032080009F112090236A2B293422BD917F8012FFD
:10321800002AF4D0D5F864310021327833F814004C
:10322800D5F8683103EB041323F81200338801330F
:103238009BB233805FFA83FA3A789A42D2D88A46A8
:10324800A6F80080D0E7CAF34001A9F1040000F015
:1032580061FCBBF1020FCAF38001CED0484600F0F2
:1032680059FCCAE7002395F84802204909229842E8
:10327800C5F8D8314FF48060C5F8D011C5F8D4210D
:103288004FF400614FF40052C5F8DC3108BF4FF429
:103298008073C5F8E821C5E9780100221448C5E91A
:1032A8007B32C5F8F42103F09BFB08B1FFBEFEE7B3
:1032B80095F83021D5F864110E48BDE8F84F02F0B2
:1032C800B3BC0A4909224FF48060C5F8D831C5E972
:1032D80074124FF400614FF40052C5E97730C5E924
:1032E8007912DAE700200240300900244000024049
:1032F800000B00249C0A0024704700BF4F4B026853
:103308009A4200D070474E4BD3F8E81030B541F0E0
:1033180000514C4C85B0D4F84821C3F8E810D3F8D4
:10332800E81001F0005101910199D3F8E01041F043
:103338000101C3F8E010D3F8E03003F00103029371
:10334800029B32F002033DD0013A012A6BD9D4F82E
:103358004C31012B0AD000223620114602F0B6FF6C
:10336800362005B0BDE8304002F0EEBFD4F8483151
:1033780033F0020234D0013B012BECD84422402325
:103388003149324DC4F88C1000212846C4F8B010D9
:10339800C4E9242300224FF48063C4E926234FF4B0
:1033A80000624FF40053C4E928234FF480724FF4AD
:1033B8008033C4E92A2303F013FB80B9E560C4F81D
:1033C800C440C8E74FF48062032303A8ADF80C207B
:1033D8008DF80E3000F0B4FAD4F84821B4E7FEE7CF
:1033E8001B4BA2634322636140231A4DC4E90623A1
:1033F80000224FF480632846C4E908234FF4006292
:103408004FF40053C4E90A234FF480724FF4803319
:10341800C4E90C2303F0E4FA20B9D4F84831A560D4
:10342800E464A8E7FEE74FF4A062032303A8ADF81D
:103438000C208DF80E3000F083FA88E70074004005
:1034480000440258800B0024280402400C0C00247D
:1034580010040240940B0024014803F047BF00BF4A
:10346800940B0024014803F041BF00BF0C0C00245A
:1034780010B5054C204603F0E3F804F58270BDE86A
:10348800104009F09FB900BF800B0024164BD3F8F9
:103498004821D3F85811022A4FEA510130B583B0B8
:1034A8000CD088B2D3F85C21D3F8644102EB400316
:1034B80000930CB16846A04703B030BDD3F8602133
:1034C800002AF9D088B2D3F85C41D3F8645104EBF0
:1034D800400402EB4002CDE90042002DECD06846E2
:1034E800A84703B030BD00BF800B0024134BD3F8AE
:1034F8004821022A10B582B00CD0D3F85C11D3F859
:103508006421009122B1D3F85811684649089047C0
:1035180002B010BDD3F86021002AF9D0D3F85C11AD
:10352800D3F86441CDE90012002CF1D0D3F858113A
:1035380068464908A04702B010BD00BF800B0024B0
:10354800094BD3F84821022A0DD000B5D3E9581207
:1035580083B0019122B1D3F8581101A849089047C6
:1035680003B05DF804FB7047800B00240B4BD3F8C5
:103578004821022A10D0D3F8581110B5D3E958249D
:10358800C1F34F0382B0490802EB430301930CB126
:1035980001A8A04702B010BD704700BF800B0024EF
:1035A80030B58C463A4C3B4D8DB0046004F5A27E94
:1035B800BCE80F00AEE80F00DCF8003020462560BC
:1035C800CEF8003002F04EFF0023D4F84C5103939C
:1035D800C5B11622012D049217D00022D4F8541137
:1035E800D4F848319142CDE9062218BF022205924B
:1035F80033F0020235D0013B012B3CD90025284687
:103608000DB030BD02230493E7E7234A0093C4F8C2
:103618000C31C4F81431C4F80421C4F81C31CDE9C4
:10362800013301F0A1FDD4F844314BF68032C4F8DF
:103638000851002B08BF1346B0FBF3F304F5827062
:10364800C4F8103108F028FF0028D8D120230290B0
:10365800694604F58270009309F06CF90028BCD023
:10366800CDE703A90A4803F01FF878B9D4F8483120
:10367800013B012BC2D8102203A9054803F014F816
:10368800051E18BF012528460DB030BD0125B6E737
:10369800800B0024007400400010004070B50468DE
:1036A8001D4682B01046D4F84C31012B03D0D4F813
:1036B8004831022B24D1D4F85031069A002BC4F893
:1036C8005C11C4F864212B460CBF08260026C4F8F8
:1036D80060010A46C4F8585100212046009602F0BD
:1036E800D7FED4F860212B4610212046009602F020
:1036F800CFFE04F5827008F06FFF002002B070BDA5
:10370800012002B070BD00BF10B50468D4F84C3178
:10371800012B09D1D4F8483133F0020106D0013B1E
:10372800012B0BD9002010BD012010BD204602F04E
:103738003BFFD4F84831013B012BF3D81021204638
:1037480002F032FF002010BD10B592B0ADF80410A1
:103758000180C9B2149C0B29C460C0E901233FD081
:1037680090F801C0BCF10F0F3AD8022A3FD0032AC3
:1037780002D0012A00D000220E92012B02D0022B87
:1037880018BF0023022C0F932CD0032C2AD0012C15
:1037980028D000230A29109327D85C4A02EB8122FB
:1037A80002610A2914D8DFE801F0A39587796B5DD7
:1037B8004F4133250600564BD3F8E01041F48061A1
:1037C800C3F8E010D3F8E03003F480630C930C9B4B
:1037D80001230DA9104603FA0CF30D9304F0D8F851
:1037E80012B010BD0A291094D7D90022D8E71122A7
:1037F8000E92C2E7464BD3F8E01041F40071C3F8CB
:10380800E010D3F8E03003F400730B930B9BDFE771
:103818003F4BD3F8E01041F48071C3F8E010D3F8BF
:10382800E03003F480730A930A9BD1E7384BD3F84E
:10383800E01041F08001C3F8E010D3F8E03003F065
:1038480080030993099BC3E7314BD3F8E01041F09B
:103858004001C3F8E010D3F8E03003F040030893C8
:10386800089BB5E72A4BD3F8E01041F02001C3F8D4
:10387800E010D3F8E03003F020030793079BA7E795
:10388800234BD3F8E01041F01001C3F8E010D3F84F
:10389800E03003F010030693069B99E71C4BD3F81E
:1038A800E01041F00801C3F8E010D3F8E03003F06D
:1038B80008030593059B8BE7154BD3F8E01041F0FF
:1038C8000401C3F8E010D3F8E03003F004030493D4
:1038D800049B7DE70E4BD3F8E01041F00201C3F8DA
:1038E800E010D3F8E03003F002030393039B6FE783
:1038F800074BD3F8E01041F00101C3F8E010D3F80A
:10390800E03003F001030293029B61E700000258D4
:103918000044025808B5012143780069994089B2EA
:1039280004F03EFA003818BF012008BD01230A46FA
:103938004178006903FA01F189B204F037BA00BF8F
:103948008378022B30B504468FB037D0032B33D0A1
:10395800012B31D000230A93E378012B2AD0022BC4
:1039680028D000230B93002320460C9301F082FDFE
:103978000546204601F086FD23780990082B13D8C8
:10398800DFE803F01F3245586B7E91A40500594BC0
:10399800D3F8E02042F48072C3F8E020D3F8E03096
:1039A80003F480730893089B09A9284603F0F0FFE5
:1039B8000FB030BD0B93D6E70A93CDE711230A93D6
:1039C800CAE74C4B09A92846D3F8E02042F0010287
:1039D800C3F8E020D3F8E03003F001030093009B24
:1039E80003F0D6FF0FB030BD424B09A92846D3F8E3
:1039F800E02042F00202C3F8E020D3F8E03003F000
:103A080002030193019B03F0C3FF0FB030BD394B94
:103A180009A92846D3F8E02042F00402C3F8E020C0
:103A2800D3F8E03003F004030293029B03F0B0FFE5
:103A38000FB030BD2F4B09A92846D3F8E02042F03B
:103A48000802C3F8E020D3F8E03003F0080303933A
:103A5800039B03F09DFF0FB030BD264B09A92846F4
:103A6800D3F8E02042F01002C3F8E020D3F8E030A9
:103A780003F010030493049B03F08AFF0FB030BDDA
:103A88001C4B09A92846D3F8E02042F02002C3F8CD
:103A9800E020D3F8E03003F020030593059B03F002
:103AA80077FF0FB030BD134B09A92846D3F8E020A3
:103AB80042F04002C3F8E020D3F8E03003F04003BE
:103AC8000693069B03F064FF0FB030BD094B09A9AC
:103AD8002846D3F8E02042F08002C3F8E020D3F86B
:103AE800E03003F080030793079B03F051FF0FB00A
:103AF80030BD00BF0044025838B5054601F0BAFC95
:103B08000446284601F0BEFC01462046BDE8384080
:103B180004F046B970B506460D4601F0ABFC044604
:103B2800304601F0AFFC2A1E0146204618BF01228C
:103B3800BDE8704004F03AB90023122270B586B08F
:103B4800CDE9022304930368032B01D804230593CA
:103B5800061D841D304601F08DFC0546304601F0F7
:103B680091FC034601A92846019303F011FF204662
:103B780001F080FC034620461C4601F083FC01A9A5
:103B880003462046019303F003FF06B070BD00BF53
:103B9800634A0368934210B58CB028D0614A9342B7
:103BA80058D0614A934200F09480604A934201D011
:103BB8000CB010BD5E4C5F48D4F8E03043F002030F
:103BC800C4F8E030D4F8E03003F002030A930A9B0B
:103BD800FFF7B2FFD4F8F43043F08003C4F8F430B0
:103BE800D4F8F43003F080030B930B9BE0E7504CC0
:103BF8005148D4F8E03043F00203C4F8E030D4F878
:103C0800E03003F002030193019BFFF795FFD4F81E
:103C1800E83000221F2043F400131146C4F8E830AE
:103C2800D4F8E83003F400130293029BD4F8D83098
:103C380043F00103C4F8D830D4F8D83003F00103B6
:103C48000393039B02F042FB1F200CB0BDE8104019
:103C580002F07ABB364C3948D4F8E03043F08003A0
:103C6800C4F8E030D4F8E03003F080030493049BF8
:103C7800D4F8E03043F00203C4F8E030D4F8E03080
:103C880003F002030593059BFFF756FFD4F8E830CD
:103C98000022212043F480031146C4F8E830D4F808
:103CA800E83003F480030693069BD4F8D83043F039
:103CB8000103C4F8D830D4F8D83003F001030793CF
:103CC800079B02F003FB21200CB0BDE8104002F076
:103CD8003BBB1B48FFF730FF154B00224820D3F8A9
:103CE800E840114644F40004C3F8E840D3F8E8403B
:103CF80004F400040894089CD3F8D84044F0010464
:103D0800C3F8D840D3F8D83003F001030993099BCE
:103D180002F0DCFA48200CB0BDE8104002F014BBF9
:103D28000054004000580040005C0040001C00584F
:103D380000440258740F0024EC0C0024C40D002425
:103D48009C0E00242DE9F0431A4B87B000254FF054
:103D580010099E46EC46184BFF22E04667461A704B
:103D68000EF118060EF13004CDE90055CDE90255E3
:103D7800ADF80090BCE80F00CDE90455AEE80F009F
:103D88009CE803000095ADF800908EE80300B8E8C1
:103D98000F000FC69CE803000095ADF8009086E878
:103DA80003000FCF0FC49CE8030084E8030007B0AA
:103DB800BDE8F08304000024E80C002410B5EFF3FC
:103DC800108472B6084B1A78120602D504B962B686
:103DD80010BD1B78D82205485BB202FB03001430E3
:103DE80003F084FAF2E700BFE80C0024EC0C00248E
:103DF800014804F033BF00BF780D0024014804F0E7
:103E08002DBF00BF500E0024014804F027BF00BF9B
:103E1800280F00242DE9F0430F68D8243F4D85B0C2
:103E280007FB04F4032F05EB0403036040DCCB68B5
:103E38000E46012B3CD84DD04FF0D808B646DFF8D7
:103E4800FC9008FB0758BEE80F00C446ACE80F001A
:103E5800DEF800300DF1100ECCF80030D8F808C0AC
:103E680099E80F000EE90F000EEB8703BCF1010F74
:103E780053F8103CC8F88C3031D0BCF1020F42D056
:103E8800BCF1000F35D0317C8C34D82300220120BE
:103E98002C4403FB07534900C3E92602C3F89410D6
:103EA8002046C3E92822C3E92A2204F009FC18B1F4
:103EB800012005B0BDE8F0830146204604F0DAFE93
:103EC8000028F5D10146204604F0FEFE003818BF50
:103ED8000120EEE70B7C103B672BADD9E8E701F03A
:103EE80041F90F4B98420CBF0E4B0F4BC8F890305E
:103EF800C9E701F037F90A4B98420CBF0B4B0C4B42
:103F0800C8F89030BFE701F02DF9054B98420CBF77
:103F1800084B094BC8F89030B5E700BFEC0C0024FB
:103F2800000E27072D0FB0303211D0205F4390606C
:103F38008A62E030200BA0101A098010D0330108E3
:103F48002DE9F041046884B01E46E368BDF82C8072
:103F5800C3B90D4617468C34204604F087FE202846
:103F6800FAD120460C9C33463A462946CDE90184CD
:103F78000A9C009404F024FD003818BF012004B006
:103F8800BDE8F081012004B0BDE8F0812DE9F041E1
:103F9800046884B01E46E368BDF82C80C3B90D469A
:103FA80017468C34204604F061FE2028FAD12046BA
:103FB8000C9C33463A462946CDE901840A9C009474
:103FC80004F0D4FB003818BF012004B0BDE8F0812C
:103FD800012004B0BDE8F081044B10221A7483F864
:103FE800E82083F8C02183F898227047EC0C00245D
:103FF80030B5002395B04FF48071062204460B9328
:1040080006921393CDE90C13CDE90E33CDE91133A4
:1040180001F0ACF807282BD004F1100541F28832E2
:1040280006A9284605F062FC28B10123184684F841
:104038005C3015B030BD0222022306A92846CDE91E
:10404800002310220123CDE9022300224FF480032C
:10405800CDE9042305224FF0807306926A460F9338
:1040680041F2883305F0AEFD0028DED115B030BD31
:104078000323012084F85C3015B030BD0000000037
:1040880070B50023A4B04FF080724FF480750446D9
:10409800ADF806300D93CDE910320122CDE90E536B
:1040A800CDE91223CDE91433002943D0F02300F1E0
:1040B800100508AEADF80630C02341F2883231460B
:1040C8002846089305F012FC28B10123184684F805
:1040D8005C3024B070BD41F288320DF106012846EB
:1040E80005F06EFC03460028EFD105224FF48071DD
:1040F8001E93284616924FF080721B9321931F92AD
:1041080002AA9FED1F7BCDE91C13CDE922338DED6B
:10411800027B9FED1D7B41F2883316A98DED047B50
:104128009FED1B7B8DED067B05F04CFD0028CCD167
:1041380024B070BD00F1100508AE612341F2883249
:1041480031462846089305F0D1FB0028BDD141F23D
:1041580088320DF10601284605F0B0FC0028B4D1DC
:10416800BDF80630204623F0780343F04003ADF84D
:104178000630FFF73DFF00289ED0A6E7AFF300808A
:104188000000000001000000100000000100000015
:1041980000000000000040002DE9F04F00234FF41C
:1041A800807501264FF0807804462DED028BABB068
:1041B8008DF8073013932193299314950E96CDF813
:1041C8005C80CDE91533CDE91863CDE91A33CDE923
:1041D8002253CDE92433CDE9273306231C9300F07D
:1041E800C5FF072808D004F1100741F288321CA93E
:1041F800384605F07BFB40B10123184684F85C3053
:104208002BB0BDEC028BBDE8F08F4FF0020A4FF0E7
:10421800020B4FF0050941F2883308AA1CA9384659
:10422800CDF89480CDF870909FED2D8BCDE908AB3B
:104238004FF0000A4FF4800B8DED0A8BCDE90CABE3
:1042480005F0C0FC0028D7D141F2883238460EA9C3
:1042580005F04CFB0028CFD1402341F288320DF104
:10426800070138468DF8073005F0AAFB0028C3D1AE
:1042780041F288330EA902AA3846CDF83890CDF815
:104288005C809FED197B8DED048BCDE906AB8DED40
:10429800027B05F097FC03460028ADD1CDF870905D
:1042A8004FF00109CDF894804FF00008219308AA37
:1042B80029931CA938462295CDE92333CDE9273324
:1042C80041F288338DED0A8BCDE90CABCDE9088935
:1042D80005F078FC002893D0304684F85C608FE7BE
:1042E8001000000001000000400000004000000035
:1042F8002DE9F043624CA3B00D46046000F036FF90
:10430800072800F0A980286823466968AA6807C3B7
:104318001E46AB8926F8043B3046257B677B05F0B3
:10432800C7FAE0B9574B012D4FF00108E06123614E
:1043380014BF4FF480134FF40003C4E9058893FABF
:10434800A3F3B3FA83F34FF48079013BC4F82490C4
:10435800C4E90B003046236205F03EFA38B1012269
:10436800134684F85C20184623B0BDE8F083662322
:104378000B90139041F2883206A90693CDE90C9070
:10438800CDE90E00CDE91100304605F0AFFA00285E
:10439800E5D1992341F2883206A93046069305F003
:1043A800A5FA0028DBD105231C9019906A461493BE
:1043B8004FF08073219014A91D9341F288339FED2B
:1043C8002A7BCDE91A90CDE91F008DED007B9FED8A
:1043D800287B30468DED027B9FED277B8DED047B9E
:1043E80005F0F0FB0028BAD129462046FFF748FE21
:1043F8000028B4D12046FFF7CFFE03460028AED1EF
:10440800002FB0D1189330460027002606AA14A919
:10441800CDF86890CDE91F33EB2314934FF4406334
:104428001B934FF4005317934FF440431C93A0235E
:104438001693062319934FF0805321934FF040733E
:10444800CDE906671D9305F035FC034600288AD0A0
:10445800434684F85C8086E701230322184684F8E3
:104468005C2023B0BDE8F0830000000001000000DC
:1044780010000000010000000000000000004000E3
:104488004C100024005000522DE9F04F8FB0414BE2
:104498000024026800AF9A427C63C7E90944C7E96F
:1044A8000B4403D03C37BD46BDE8F08F3A4B40F68D
:1044B80009213A48EB46D3F8D42007F11C0607F146
:1044C800220A4FF0020942F480424FF00308C3F871
:1044D800D420D3F8D42002F48042BA60BA68D3F862
:1044E800E02042F04002C3F8E020D3F8E02002F0D8
:1044F8004002FA60FA68D3F8E02042F02002C3F8DC
:10450800E020D3F8E02002F020023A613A69D3F8BB
:10451800E02042F01002C3F8E020D3F8E02002F0D7
:1045280010027A617A69D3F8E02042F00202C3F8F7
:10453800E020D3F8E030F86103F002033984BB616E
:10454800174B7B60BB697B6853F8040F7B6000F0F6
:1045580091FF7B680546186800F094FF16F8013B48
:10456800786207F124012846C7F830807B63C7E9E1
:104578000A9403F00DFA5645E5D100225C20114655
:1045880001F0A4FE5C2001F0DFFE3C37DD46BD46AD
:10459800BDE8F08F00500052004402580A0A090989
:1045A800A8100024114B02689A4200D07047104AA4
:1045B80070B5D2F8D4300F4C23F4804304F11806B8
:1045C800C2F8D43054F8040F00F054FF05462068B0
:1045D80000F058FF0146284603F01AFBB442F1D117
:1045E8005C20BDE8704001F0BDBE00BF0050005225
:1045F80000440258A8100024014805F0E7BB00BF9A
:104608005C100024084B1A1D981D03F1080110B412
:104618009C1C9A6603F10A02C3E91834C3E91B011A
:104628005DF8044B5A6770474C10002438B503688E
:1046380071B9026A00F1280500F5AC74012A0CBFB3
:10464800002140218BBB1D4B5722C0F858310DE08B
:10465800426A00F1C00500F5E874012A0CBF002188
:104668004021EBB1164B5A22C0F8D0310023204626
:10467800C4E901214FF480524FF4806163626261A2
:104688004FF48042C4E903314FF48073C4E9062330
:104698004FF40033236202F0A3F958B1FFBEFEE7DE
:1046A800084B5822C0F8D031E0E7074B5922C0F830
:1046B8005831DBE7C5E92044A56338BD1000024046
:1046C8007000024028000240580002402DE9F043E3
:1046D800821D05468BB0031D05F10A010830CDE99E
:1046E800052305F10C02AB69CDE907010992002BFE
:1046F8003DD0EB69B3FA83F84FEA58180123022238
:1047080005AE0AAF4FF006090393CDE9012356F829
:10471800044B2B792278934216D02B68F3B1012BE6
:1047280002D1F2B10A230493204600F0ABFE0346FF
:104738002046009300F09EFE694603F029F9BE4228
:10474800E5D10BB0BDE8F083697963789942E4D18B
:10475800B8F1000FF3D02B68002BE0D1CDF8109002
:10476800E2E76378022B14BF0A230823DBE74FF044
:104778000108C3E7534A0368934230B505468BB036
:1047880055D02032934252D04F4A934204D020321F
:10479800934201D00BB030BD4C4C4D48D4F8E030BA
:1047A80043F00103C4F8E030D4F8E03003F001032B
:1047B8000593059BD4F8E03043F00803C4F8E030D3
:1047C800D4F8E03003F008030693069BD4F8E030F1
:1047D80043F04003C4F8E030D4F8E03003F040037D
:1047E8000793079BD4F8F03043F40003C4F8F03083
:1047F800D4F8F03003F400030893089BFFF766FF32
:10480800D4F8D830296843F001032F4A3048C4F857
:10481800D830891AD4F8D83018BF012103F0010321
:104828000993099B0BB0BDE83040FFF7FFBE274C4A
:104838002848D4F8E03043F00103C4F8E030D4F855
:10484800E03003F001030093009BD4F8E03043F01C
:104858001003C4F8E030D4F8E03003F010030193FB
:10486800019BD4F8E03043F04003C4F8E030D4F8BA
:10487800E03003F040030293029BD4F8F03043F495
:104888008003C4F8F030D4F8F03003F480030393C5
:10489800039BFFF71BFFD4F8D830296843F00103C6
:1048A800084A0C48C4F8D830891AD4F8D83018BF48
:1048B800012103F001030493049B0BB0BDE83040D1
:1048C800FFF7B4BE04580140045C0140004402589C
:1048D80020130024C4100024014802F007BD00BFC3
:1048E8001C120024014802F001BD00BF94120024EC
:1048F800014802F0FBBC00BF78140024014802F014
:10490800F5BC00BFF01400241A4A0368934210B49F
:104918000BD02032934208D0174A934216D0203247
:10492800934213D05DF8044B7047144B0022D3F820
:104938005442C3F85822002CF4D0D3F84802D3E9E3
:10494800931223465DF8044B520818470B4B00227C
:10495800D3F8B044C3F8B424002CE3D0D3F8AC2483
:10496800D3F8A814D3F8A404520823465DF8044BDE
:10497800184700BF04580140045C0140C4100024DB
:10498800184A0368934210B40BD02032934208D0DF
:10499800154A934217D02032934214D05DF8044B45
:1049A8007047124BD3E994245208C3F85822002CBC
:1049B800F4D0D3E99201234601EB820100EB820097
:1049C8005DF8044B1847094BD3F8AC24D3F8B0442E
:1049D8005208C3F8B424002CE0D0D3F8A814D3F8B4
:1049E800A404E8E704580140045C0140C410002412
:1049F8002DE9F04F0C684FF41776754F87B004FB1C
:104A080006F6012C07EB060AC0F800A000F3A08008
:104A18000D468E464FF00008D44669A3D3E900231B
:104A280069A1D1E90001CDE9022306ABCAF8508299
:104A380003EB8403CDE9040153F810BC53F8083C98
:104A4800CAE992880193BEE80F00ACE80F00BEE8FF
:104A58000F00ACE80F00019B9EE80300CAF828B0DD
:104A6800CAF8C0308CE803002B69042B0CD8DFE8A7
:104A780003F0737D879103004FF41773554A03FBC6
:104A880004739A64C3F8E020AA692B6A002A43D009
:104A9800002B4FF4177308BF022203FB047318BFDF
:104AA8000322DA6201221A63EA696B6A002A40D19A
:104AB800191E4FF4177318BF012103FB0473C3E9D0
:104AC80031126B69022B05D8434A12F80380434A16
:104AD80052F823904FF4177306F1280042464946CE
:104AE80003FB04740023384463646363E365C4F818
:104AF800DC30C4F8CC30C4F8F430C4E90F33C4E96E
:104B08001533C4E93533C4E93B33022307F000FA0F
:104B1800002849D0FFBEFEE7191E4FF4177318BFCF
:104B2800012103FB0473C3E90B12EA696B6A002ACB
:104B3800BED0002B4FF4177308BF022203FB047387
:104B480018BF0322C3F8C4200122C3F8C820B8E75D
:104B5800012007B0BDE8F08F4FF417734FF4FA52F5
:104B680003FB04739A64C3F8E0208DE74FF41773CE
:104B78004FF47A5203FB04739A64C3F8E02083E786
:104B88004FF417734FF4FA4203FB04739A64C3F8A3
:104B9800E02079E74FF417734BF6803203FB047378
:104BA8009A64C3F8E0206FE706F1C000022342468A
:104BB8004946384407F0ACF90028CAD0FFBEFEE7E2
:104BC80004580140045C014024580140245C014021
:104BD800C410002400770100643401086834010817
:104BE8000068704770B5046882B015460E46C4F870
:104BF8005032C4E99212069AC4F85422A269012AD2
:104C080026D0626A012A9AB211D0294604F1C0005E
:104C1800019207F039FA236A019A012B10D029462C
:104C280004F1280007F030FA002002B070BD04F14A
:104C3800C000019207F0BAFA236A019A012BEED15B
:104C4800314604F1280007F0B1FA002002B070BD27
:104C5800226A012A9AB211D0294604F12800019249
:104C680007F012FA636A019A012B10D0294604F161
:104C7800C00007F009FA002002B070BD04F1280056
:104C8800019207F093FA636A019A012BEED131463B
:104C980004F1C00007F08AFA002002B070BD00BF1E
:104CA80003681B69042B05D8044A02EB830393EDC0
:104CB800000A70479FED020A704700BF743401086C
:104CC80000803B470368D3F858027047704700BF1D
:104CD80008B500F0DFFCBDE8084001F0BFBB00BF2D
:104CE800064808B503680BB103F064F80448036884
:104CF8001BB1BDE8084004F013B808BD88190024AA
:104D080080150024064808B503680BB103F052F873
:104D1800044803681BB1BDE8084004F001B808BDA9
:104D28008819002480150024064808B503680BB1CB
:104D380003F040F8044803681BB1BDE8084003F0DD
:104D4800EFBF08BD8819002480150024364BDA6AA5
:104D5800520062D59A6A9A6A9A6A9B6A180600D5BE
:104D680000BE314B9B6A990600D500BE2E4B9B6A4C
:104D7800DA0600D500BE2C4B9B6A1B0700D500BE87
:104D8800294B9B6A980700D500BE274B9B6AD90719
:104D980000D500BE244B9B6A1A0400D500BE224BE6
:104DA8009B6A9B0400D500BE1F4B9B6AD80400D5A4
:104DB80000BE1D4B9B6A190500D500BE1A4B9B6AA5
:104DC8005A0500D500BE184B9B6A9B0500D500BE4E
:104DD800154B9B6AD80500D500BE134B9B6A9901F9
:104DE80000D500BE104B9B6ADA0100D500BE0E4B01
:104DF8009B6A1B0300D500BE0B4B9B6A580300D56A
:104E080000BE094B9B6A990300D500BE064B9B6AFE
:104E1800DA0306D400BE00BEFEE7DB6A9B07FAD5BC
:104E2800F8E700BEF6E700BF00ED00E000F03EBC8A
:104E380000F042BC0A4B9B6803F17843B3F5003F8E
:104E48000BD3084B986848B19868012806D0986831
:104E5800022803D09B68032070470120704700BFD9
:104E680000ED00E0000080382DE9F041CEB00446A6
:104E78004C2200210AA80EF093FA2022002102A851
:104E88000EF08EFABC2200211EA80EF089FA02202C
:104E980004F0BAFB2368012B4FF0000354D0534AA7
:104EA80002250193C820D16A514B21F00101D1623A
:104EB800D26A02F0010201929A6942F440429A6170
:104EC8009B6903F440430193019B494A93699B04FE
:104ED800FCD548490224002201268B6A04274FF09A
:104EE800080823F0030323438B62052316900AA8BE
:104EF80018934FF480331096179419941597CDF89A
:104F08006880CDE91B222122CDE91344CDE90A238B
:104F180005F064F800B1FEE73F220323294602A802
:104F2800CDE9022300220823CDE9042340224023AF
:104F3800CDE9062340234FF48062CDE9082305F02C
:104F48007BFB0346B8B1FEE7294A04250093F0200D
:104F58009169264B41F440419161926902F44042C3
:104F68000092DA6A42F00102DA62DB6A03F00103B6
:104F78000093009BA9E720224FF4805125934FF41A
:104F880040152B9280222D931EA83093269135919F
:104F98004FF48071249234920C223394439140F25E
:104FA800271120921022CDF884802A971F96CDE9E8
:104FB8002E34CDE93B334FF48033CDE9224631938B
:104FC800002446930623CDE93E4527934FF480639A
:104FD800094C2C931E94CDE9281205F089FD00B1E7
:104FE800FEE704F037FB4EB0BDE8F081000400583E
:104FF80000480258004402580F130F0370B584B0DC
:10500800012401F0D9F94FF480764FF04052194B42
:1050180068460025ADF800400396CDE9012301F06C
:10502800E9F919224FF0404368468DF808200193AA
:105038008DF80F40ADF80D608DF801408DF80A50DD
:1050480001F0D8F902230B2268468DF80F508DF82D
:1050580001304FF062538DF808200193ADF80D40F0
:105068008DF80A4001F0C6F9042001F0B3F904B044
:1050780070BD00BF0E00010330B50D46044685B073
:10508800D1E9000184E8030000F0D4FAAB79A3B3B6
:105098000AF0BCFEFEF756FE09F022FB0AF0AEFB52
:1050A8002B798BBB6B799BB1BFF34F8FBFF36F8F9E
:1050B8002A4B0022C3F85022BFF34F8FBFF36F8FE4
:1050C8005A6942F400325A61BFF34F8FBFF36F8FB2
:1050D8004FF0FF3200230024002569462048029241
:1050E8008DF80C30CDE9004509F01AFF1C4809F08D
:1050F8007FFF08F025FF05B030BD2046FFF7B4FE5E
:105108002046FFF77BFFC3E7144C0023C4F8843024
:10511800BFF34F8FD4F8801043F6E07EC1F34E3CC6
:10512800C1F3C9014FEA4C1C0CEA0E000B4640EAD9
:105138008372013BC4F860225A1CF8D1ACF1200CF0
:105148001CF1200FF0D1BFF34F8F636943F4803314
:105158006361BFF34F8FBFF36F8FA3E700ED00E0EC
:105168007C15002405F098BB05F0B2BB1C4B9B686E
:1051780003F17842B2F5003F25D3B3F5803F20D341
:1051880003F16042B2F5003F1FD303F15C42B2F570
:10519800002F1CD303F17042B2F5902F19D303F1FD
:1051A8004842B2F5803F16D303F18042B2F1806FD6
:1051B80013D303F1E043B3F5000F2CBF08200720F9
:1051C8007047012070470020704702207047032075
:1051D800704704207047052070470620704700BFBD
:1051E80000ED00E003480023034A044903600DF082
:1051F8009FBD00BF7C15002400000024D54C00088A
:1052080010B4204C0022204B83B0D4F888101F48DB
:1052180041F47001C4F8881019681D4C41F001016F
:1052280019601A61196808401A4918609A61DA61A8
:105238001A629A62DA621A635A639A63DA631A64C0
:105248005A64186820F4802018601A66D3F8DC20A5
:1052580042F06042C3F8DC20D3F8DC300193019BB4
:1052680023681940B1F1005F03D20B4B0122C3F848
:105278000821044B4FF000629A6003B05DF8044BBC
:10528800704700BF00ED00E0004402587FEDF6EAE9
:105298000010005C0000FFFF0080005100F57171F4
:1052A800D0F8040408F034BAC1EBC10300EB83035F
:1052B800D0F80404D3F8082208F058BAC1EBC103A7
:1052C80000EB8303D0F804049A6C08F08DBA00BF91
:1052D800D0F8040408F02CBBC16810B5044619B115
:1052E800022900D0FEE70121D4F8040408F00AFBE3
:1052F800D4F80404BDE8104008F0DCBA10B5044640
:10530800D0F8040408F002FB2268D2F8003E43F00B
:105318000103C2F8003E236A23B1034A136943F02C
:105328000603136110BD00BF00ED00E0D0F80404CF
:1053380008F0F6BAD0F8040408F00ABBD0F8040460
:1053480008F004BBD0F8040408F004BBD0F8040447
:1053580008F002BB9446D0F898021A4608B563468E
:1053680004F042F8032802D8024B185C08BD02205A
:1053780008BD00BF98340108D0F8980208B504F0B9
:10538800C1F8032802D8024B185C08BD022008BDEA
:1053980098340108D0F8980208B504F0F7F8032803
:1053A80002D8024B185C08BD022008BD98340108D9
:1053B8000A06D0F8983206D4C1EBC10103EB81018B
:1053C80091F8FE01704701F07F01C1EBC10103EBC9
:1053D800810191F83E007047D0F8980208B503F0B3
:1053E800EDFF032802D8024B185C08BD022008BD57
:1053F80098340108D0F8980208B504F05BF803283F
:1054080002D8024B185C08BD022008BD9834010878
:10541800D0F8980208B504F025F8032802D8024B02
:10542800185C08BD022008BD98340108D0F8C002F5
:1054380008F040BDD0F8C00208F054BDD0F8C00252
:1054480008F05CBD704700BFD0F8C00208F042BD4C
:10545800D0F8C00208F042BDD0F8D00308B503F078
:1054680069F8032802D8024B185C08BD022008BD61
:105478009C340108024B027853F82200704700BFA1
:10548800C0340108024B427833F81200704700BF5D
:10549800A03401088CB00A2814D8DFE800F01523DE
:1054A800313F4D5B6977859306004D4BD3F8E0207B
:1054B80042F48062C3F8E020D3F8E03003F480635C
:1054C8000B930B9B0CB07047454BD3F8E02042F090
:1054D8000102C3F8E020D3F8E03003F001030193A0
:1054E800019BEFE73E4BD3F8E02042F00202C3F8FD
:1054F800E020D3F8E03003F002030293029BE1E7D7
:10550800374BD3F8E02042F00402C3F8E020D3F888
:10551800E03003F004030393039BD3E7304BD3F845
:10552800E02042F00802C3F8E020D3F8E03003F0AE
:1055380008030493049BC5E7294BD3F8E02042F005
:105548001002C3F8E020D3F8E03003F0100305930D
:10555800059BB7E7224BD3F8E02042F02002C3F8BE
:10556800E020D3F8E03003F020030693069BA9E778
:105578001B4BD3F8E02042F04002C3F8E020D3F8F8
:10558800E03003F040030793079B9BE7144BD3F8E5
:10559800E02042F08002C3F8E020D3F8E03003F0C6
:1055A80080030893089B8DE70D4BD3F8E02042F465
:1055B8008072C3F8E020D3F8E03003F480730993D5
:1055C800099B7FE7064BD3F8E02042F40072C3F84A
:1055D800E020D3F8E03003F400730A930A9B71E7E4
:1055E80000440258704700BF0F4B1B780BB90120CD
:1055F800704710B504464FF47A700C4AB0FBF3F3C9
:105608001068B0FBF3F000F0C1FE0F2C00D808B111
:10561800012010BD002221464FF0FF3000F056FE59
:10562800034B00201C6010BD540000244C000024D3
:105638005800002438B50320124D00F035FE124CF6
:1056480004F05AFF114A12499369C3F30323CB5C50
:1056580003F01F0320FA03F30E202B60926902F077
:105668000F028A5C02F01F02D3402360FFF7BCFFE1
:1056780010B10124204638BD0446FFF7B3FF204689
:1056880038BD00BF4C0000245000002400440258DC
:1056980088340108034A044B11681B780B441360D3
:1056A800704700BF4C1C002454000024014B1868AC
:1056B800704700BF4C1C002438B50446FFF7F6FFBE
:1056C8000546631C02D0044B1B781C44FFF7EEFF11
:1056D800431BA342FAD338BD54000024014B186879
:1056E800000C70470010005C704700BF806B08B565
:1056F800FFF7FAFF08BD00BF836B5A6D12F0500F19
:105708005A6D10B51DD1196842F400725A650A68BD
:1057180012F0080FCA681BD012F4406F0DD1CA6886
:1057280094040AD45A6D22F480725A655A6DD104D1
:1057380003D45A6D42F001025A651846FDF738FD48
:1057480010BDD2060AD4DB6CBDE81040DB6C1847EC
:105758009007E7D01846FDF72BFDF1E71846FDF74F
:10576800CBFD10BD806B08B5436D43F04003436526
:10577800836D43F004038365FDF7BEFD08BD00BFDC
:10578800F0B5002283B0019290F85020012A00F071
:105798001C81034601201A6883F850009468640746
:1057A80000F18A800C68C4F31305002D40F08F8047
:1057B800C4F38464A0404D684FF01F0ED6694FEAC9
:1057C800951C30430CF00C0CD06105F01F0002F161
:1057D800300584400EFA00FE5CF8050020EA0E0051
:1057E80004434CF80540906840076ED4956815F05E
:1057F800080547D10C68072002F11406B94F4FEA93
:10580800D45CC4F304540CF0040C00FA04FE886859
:1058180000FA04F45CF8060020EA0E0020434CF875
:105828000600386800F07040B0F1805F00F0C58075
:10583800D068D668C70600F1E880C6F382064869D2
:10584800760000FA06F60F69042F00F0C18002F115
:105858006004086854F827C000F0F8400CF0004CC9
:1058680040EA0C00304344F82700487E0E690128BE
:1058780054F8260008BF4FF0004520F000400543CB
:1058880044F826509068C40714D4CE68086806F017
:105898001807954CD2F8C050FC40C0F313070440D9
:1058A80025EA07052C43C2F8C040904CA64246D0D2
:1058B800002816DB002003E05A6D42F020025A65EA
:1058C800002283F8502003B0F0BD9068DAE794FA1C
:1058D800A4F5B5FA85F5C4F3846405F01F05A8405E
:1058E80069E783498A4200F0B68001F580718A42EF
:1058F80000F0B1807F4D804CA968A46801F0E07683
:10590800E44304F00104002C00F0B4807B4CA04276
:1059180000F0FC807A4CA04200F01A81794CA04239
:10592800C8D14902C6D474498A42C3D1AA680020A2
:1059380022F0E072324342F48002AA60C0E7002FEE
:105948006AD090FAA0F4B4FA84F4013404F01F0485
:10595800092C00F2A48090FAA0F4B4FA84F490FA26
:10596800A0F5B5FA85F5013401260135A40605F040
:105978001F0504F0F84406FA05F52C4390FAA0F048
:10598800B0FA80F0304400F01F0000EB4000000542
:105998002043C60D02F11405C0F30450072406F095
:1059A800040604FA00F7745924EA07048F6807FA12
:1059B80000F02043705108687AE7D6684869C6F352
:1059C8008206760000FA06F63DE7022003B0F0BD35
:1059D800106E0C6800F0F840A506B0EB846F30D06C
:1059E800506E00F0F840854226D0906E00F0F840E6
:1059F80085422BD0D06E00F0F84085427FF442AF4C
:105A0800D06E20F00040D0663CE77608486906F082
:105A1800080600FA06F616E7800E441C04F01F0676
:105A2800092E2DD8A406012004F0F844B040044300
:105A380006EB46000005ABE7506E20F000405066CC
:105A4800D3E7106E20F000401066C9E7906E20F092
:105A580000409066CEE7264C2B4D04F58074A9686B
:105A680054F8F86CA468344301F0E076E44304F099
:105A7800010448E75A6D012042F020025A651FE7E9
:105A880006EB4600A50601241E3805F0F84504FA81
:105A980006F60005354340F00070284379E790FA90
:105AA800A0F5B5FA85F590FAA0F4B4FA84F40135B6
:105AB80001260134AD0604F01F0405F0F84506FA86
:105AC80004F4254390FAA0F4B4FA84F4344404F0BE
